:020000040000FA
:1000000088050020210D0000250D0000270D0000AF
:1000100000000000000000000000000000000000E0
:10002000000000000000000000000000290D00009A
:1000300000000000000000002B0D00002D0D00004E
:100040002F0D00002F0D00002F0D00002F0D0000C0
:100050002F0D00002F0D00002F0D00002F0D0000B0
:100060002F0D0000790B0000C30B00002F0D0000C6
:100070001D0B00002F0D00002F0D00002F0D0000A4
:100080002F0D00002F0D00002F0D00002F0D000080
:100090002F0D00002F0D00002F0D00002F0D000070
:1000A0002F0D00002F0D00002F0D00002F0D000060
:1000B0002F0D00002F0D00002F0D00002F0D000050
:1000C00000F002F800F040F80CA030C808382418FE
:1000D0002D18A246671EAB4654465D46AC4201D180
:1000E00000F032F87E460F3E0FCCB6460126334272
:1000F00000D0FB1AA246AB463343184770200000DD
:1001000090200000103A02D378C878C1FAD852077C
:1001100001D330C830C101D504680C6070470000BD
:100120000023002400250026103A01D378C1FBD813
:10013000520700D330C100D50B6070471FB5C046D1
:10014000C0461FBD10B510BD01F06EFE1146FFF791
:10015000F5FF00F037F901F086FE03B4FFF7F2FF78
:1001600003BC01F0B9FE000070B505460C4616460A
:1001700002E00FCC0FC5103E102EFAD2082E02D38B
:1001800003CC03C5083E042E07D301CC01C5361F9E
:1001900003E021782970641C6D1C761EF9D270BDB5
:1001A00070B5FF4D04242E46203609E0204629195B
:1001B00001221C3000F082FE012000F095FD641C3D
:1001C0003078401EA042F1DC70BD0FB410B508AA13
:1001D0000020127B014603AB521E03E05C5C6040D2
:1001E000491CC9B28A42F9DC10BC08BC04B01847EB
:1001F0000FB410B5002008AA014603AB127B03E040
:100200005C5C6040491CC9B28A42F9D8ECE710B581
:10021000E44C00F0E0FD01F05FFDE34901F068FC13
:100220002061616901F0E6FE0AD2206901F010FD4B
:1002300001F052FD616901F009FF01F009FD00E0E4
:10024000002001F049FD10BDF8B500273C462546C9
:100250003E4600F0C0FD002E15D0844200D9044671
:10026000854200D205463F18761C0A2EF1DB781B2A
:10027000001BC00801F030FDCA4CCB49206101F0E1
:1002800037FC6061F8BD05462C46ECE770B5C54803
:100290000024C1684800060EC248806901F028FCAD
:1002A0000546002E02D001F0D3FC0446284601F09A
:1002B000F3FB05460E46204601F0EBFB0022BB4B4C
:1002C00001F091FB2A46334601F01AFE00D2641C6D
:1002D0000A21204601F01FF9B24D1C3529700A2170
:1002E00001F019F969706421204601F014F90A211E
:1002F00001F011F9A9707D21C900204601F00BF928
:100300000A2101F008F9E97070BD70B5A54CA54847
:1003100061791C30405CA649A64D085CA9680F2293
:100320001143A96000F026FDA968A14A6079121F57
:10033000125C1140A960401CC0B26071042801D356
:100340000020607170BDF8B500259B4F29462A46F4
:100350009300DC19521C6468D2B2FC50212AF7D3F6
:10036000954A8032506000208E4A06469062D062E4
:1003700002461346B4003C59844200D920469442B8
:1003800000D2224665195941761CF6B2222EF1D3CD
:10039000844CE262A062281A9941801A9941C906E8
:1003A00040090843606201F097FC844901F0A0FB1A
:1003B00001F072FB824A834B01F015FB01F05CF9FE
:1003C000A061F8BD98B0002508A8057175482F46B2
:1003D000057000F01DFC7C48016801242143016088
:1003E000C168C907FCD00169C908C900016100F0F2
:1003F00017FC00F0CBFE00F0EBFE6E4E8036B068CE
:1004000001210843B06000F033FF00F035FD4B21BF
:10041000C9016E4800F012FE00F059FE00F0C8FC61
:1004200000F094FC00F058FF00F08FFF5D490122BE
:100430003031182000F08BFDFFF706FFB068022175
:100440000843B06057480026C76287623446374683
:10045000FFF7DDFE01F0FCFBB900574A861950504A
:1004600000214C41002F3AD04E497F1CC86288625F
:10047000222FEDD30846826A0021B21AC36A8C414A
:10048000D21A8C41E3065109194341620121444FBC
:10049000417038460C300B9014300A904C4808904C
:1004A00004461434FFF7B3FE01F0D2FBFFF74BFF15
:1004B00000210120FFF7EAFE00F0AAFB4548016891
:1004C00001263143016000F0ABFB00F0BAFE394871
:1004D000C0300069400708D400F072FE07E03148E0
:1004E0001168C16201278162B2E700F063FE152244
:1004F00068460B9900F0AEFF212229490EA800F0B2
:10050000A9FF0EA90EC92846FFF75FFE05467878B9
:10051000882807D023493A7830310978914274D13C
:100520005528FCD10A981E490078491E0090405C6D
:10053000A842F4D1F8782B2868D008DC21380300D1
:1005400001F0D1FC076588D6FD1111FC110044288B
:100550007CD004DC2D287AD02E2804D146E27828DD
:1005600076D0792875D000F0EAFD194E2078797898
:100570000C3E315420780B49401CC0B22070303101
:100580000978315420780621401CC0B220703154C3
:100590002078401CC0B22070F978315420781BE0DC
:1005A000E4000020000000200000C8420000E03FFE
:1005B00020210000004000505C0000204A0C8E40CA
:1005C0007B14AE47E17A943F00020050001BB70055
:1005D0001101002000400040401CC0B220704421A6
:1005E00031542078401CC0B2207031542078401C17
:1005F000C0B2207031542078401CC0B220703154F9
:100600002078401CC0B2207053E2DBE1E3E100F04F
:1006100096FD2178FE4E787870542078FD49401C74
:10062000C0B220700978315420780221401CC0B239
:10063000207031542078401CC0B22070F9783154B9
:100640002078401CC0B22070402132E26EE195E07B
:10065000E8E01BE1EF490020C04330398870C870E2
:1006600000F0D2FD009000F0ECFD019000F067FD7D
:100670002178E74E787870542078E649401CC0B263
:1006800020700978315420780321401CC0B22070BA
:1006900031542078401CC0B22070F9783154207851
:1006A000401CC1B22170019870542078401CC0B227
:1006B00020700099FDE120781522401C20706846CA
:1006C000089900F0C7FE2122D1490EA800F0C2FE11
:1006D0000EA90EC92846FFF78BFD05462078355434
:1006E0002078401CC1B22170C94800F0FAFC69E1D1
:1006F00000F092FDC748002130380671C94381706F
:10070000C17000F081FD009000F09BFD019000F0B1
:1007100016FD2178BE4E787870542078BD49401C73
:10072000C0B220700978315420780321401CC0B237
:10073000207031542078401CC0B201E0BBE10FE0D2
:100740002070F97831542078401CC0B22070019993
:1007500031542078401CC1B2217000987054AAE72F
:10076000AC48002130380163416339793030017081
:1007700001460122182000F0A1FB62E0A5483038B4
:10078000806901F065FA7D210646C90000F0C3FECC
:100790000A2100F0C0FE03913046642100F0BBFE48
:1007A0000A2100F0B8FE029130460A2100F0B3FEA3
:1007B0000E460A2100F0AFFE019100F0C0FC227845
:1007C00093487978815420789249401CC0B22070B7
:1007D0000A788F490A5420788D4A401CC0B2207094
:1007E0000521115420788A49401CC0B22070FA7843
:1007F0000A542078864A401CC0B2207003991154D4
:100800002078401CC0B22070029911542078401CFE
:10081000C0B22070019911542078401CC0B22070E1
:10082000165464E120217C4800F073FE009908A86A
:10083000491F0171012209A9402000F03FFBFFF789
:10084000AFFC00F07CFC2178714E787870542078F1
:100850007049401CC0B220700978315420780321BF
:10086000401CC0B2207031542078401CC0B22070AF
:10087000F978315420784F21401CC0B22070315497
:100880002078401CC0B220704B2112E1002108A842
:100890000171012209A9402000F059FB20215E4886
:1008A00000F037FE08A802795B49202000F04FFBDA
:1008B00000F045FC22785648797881542178554AD1
:1008C000491CC9B2217012784254217808AA491CE7
:1008D000C9B2217012790646531C43542178491C31
:1008E000C9B22170FB7843542178491C2170002142
:1008F00007E04948435C2078491C33542078401C69
:1009000020709142F5D315226846089900F0A2FDA7
:1009100021223F490EA800F09DFD0EA90EC92846D0
:10092000FFF766FC217805467054D9E600F007FC15
:10093000227837487978815420783649401CC0B2F3
:100940002070334A0978115420780321401CC0B22A
:10095000207011542078401CC0B22070F9781154D6
:1009600020784F21401CC0B22070115420784B21B8
:10097000401CC0B22070115420781522401C2070F9
:100980006846089900F066FD212221490EA800F072
:1009900061FD0EA90EC92846FFF72AFC05462078FE
:1009A0001B490D542078401CC1B22170184800F03A
:1009B00098FB00F02DF9052109078868304388600D
:1009C00000F02EF900F0B1FB00F0B9FB00F0ADFB38
:1009D00000F0B5FB66E50F4810493038806901F03A
:1009E00087F801460B483038C16066E0094E0020A8
:1009F000303E0590F06800904000000E06D000994F
:100A0000B06901F075F801F023F90590009907E04D
:100A100005010020300000203C0000200000A04123
:100A2000B06901F065F801F037F8064601910598C4
:100A300001F02FF800226D4B00F0D5FF3246019BEC
:100A400001F05EFA02D30598401C059000F077FB98
:100A50002178674E7878705420786649401CC0B27F
:100A600020700978315420780521401CC0B22070D4
:100A700031542078401CC0B22070F978315420786D
:100A8000401CC0B220700599090E31542078401CDA
:100A9000C0B220700599090C31542078401CC0B2B6
:100AA00020700599090A31542078401CC0B220708A
:100AB00005993154FFE5FFF7C7FB00F040FB2278B2
:100AC0004B487978815420784A49401CC0B2207044
:100AD000474A0978115420781146401CC0B2207052
:100AE0000E542078401CC0B22070FA780A54207846
:100AF0001522401C20706846089900F0ABFC2122AA
:100B00003B490EA800F0A6FC0EA90EC92846FFF727
:100B10006FFB0546217836484554E1E5F8B5364D7A
:100B2000E869C00527D5334F303F3878334E00246D
:100B30003C2808D3347020212D4800F0E8FC2C48D4
:100B4000203004703C7039782D480C2913D90246A6
:100B5000203AE969C9070CD001784B1CDBB2202B85
:100B600005D22B6853540178491C0170F1E70470D9
:100B7000EFE701203070F8BD10B5FFF7C6FB1D4848
:100B800030380178491C01700178012400290ED009
:100B90000178142901D919490C70816800290BD0FA
:100BA0008168491E81608068002803D004E0FF212D
:100BB0000170F2E700F03BFB1248816A2143816239
:100BC00010BD0C493039086A401C0862C2070E4843
:100BD0000121002A826801D00A4301E05208520034
:100BE00082600A4882680A43826070470000E03FE2
:100BF00005010020300000200000054038000020E2
:100C0000040100200000014000410050000011409C
:100C10003C4859210160162101608821016070471C
:100C200038490020086070473748016A0213914331
:100C30000162704700B5FFF7EBFF344801074862D7
:100C400000BD00B5FFF7E4FF002005210907486259
:100C500000BDF8B52E4B02460093FFF7D9FF2A4C92
:100C60002068012108432060E068C007FCD02069AB
:100C7000C008C000206110469A4220D0254F0326AC
:100C80008000394600F047FC05463946009800F0E0
:100C900042FC01462943C90715D0012240029202B5
:100CA000B103801A0143AD1E294388B22062E06877
:100CB0004007FCD52069C008C000801C2061114994
:100CC00000200860F8BD40086D08E2E70C214843A9
:100CD00011494861002088610869012210430861B8
:100CE0000869C003FCD570470C4948430A4948616C
:100CF0000020886108690122104308610869C00367
:100D0000FCD570470001005000020050A55A0000B9
:100D1000001BB70040420F0000E000E0E02E0000A2
:100D200006480047FEE7FEE7FEE7FEE7FEE7FEE7D0
:100D300003480449024A044B70470000C100000008
:100D400088010020880500208801002017480168DC
:100D500003221202914301600168920091430160F5
:100D60000168FF22013211430160016892001143C2
:100D700001607047F0B50022012610240B492023A2
:100D80000725AF1A3546BD4005428D6801D0254381
:100D900000E0A5438D608D689D438D608D681D4387
:100DA0008D60521CD2B2072AEAD9F0BD0040005033
:100DB0001C480268C0218A43026002680A4302603C
:100DC000016803221202914301600168FF2201328F
:100DD00011430160704710B50820FFF777FF1149F4
:100DE000886810229043886000200B691B07FCD4A0
:100DF00000238C6814438C608C68400094438C60A2
:100E00000C69240700D5401C5B1CDBB2182BF0D307
:100E10008B6813438B600123DB0558408B68934339
:100E20008B6010BD8040005030B50821202528225D
:100E30007E48A02312E004682C43046004680C433D
:100E4000046004682407FCD504689443046083604C
:100E500004680C43046004682407FCD5C468182C9B
:100E6000E9D1026810231A43026002680A43026053
:100E70000168C906FCD430BD6D4801680F2212021A
:100E8000914301600168C21411430160D004C16B39
:100E9000684A1140C163C16B032212031143C1634D
:100EA00065488168FF220132114381605F480D214E
:100EB00001610168402211430160704770B55B4BCE
:100EC0001C6820252C431C601D68082425431D60D8
:100ED0001D682D07FCD51D682826B5431D60DD68FB
:100EE000082D21D1A0259D601D6825431D601D682A
:100EF0002D07FCD5DD68182D16D1986018682043A1
:100F0000186018680007FCD5D86828280CD1002084
:100F10000DE00D5C9D601D6825431D601D682D075B
:100F2000FCD5DD68282D01D0002070BD401C90420A
:100F3000EFD3186810210843186018682043186020
:100F40001868C006FCD4FFF76FFF012070BDF0B534
:100F5000364B1C6820252C431C601E680824264341
:100F60001E601E683607FCD51F682826B7431F6021
:100F7000DF68082F3ED1A0279F601F6827431F60AE
:100F80001F683F07FCD5DF68182F33D198601868B9
:100F90002043186018680007FCD5D868282829D194
:100FA00018682843186018682043186018680007FC
:100FB000FCD51868B0431860D86810281AD1A12051
:100FC000986018682043186018680007FCD5D86836
:100FD000402800D0FEE71868042528431860002048
:100FE0000DE01E6826431E601E683607FCD5DE68CD
:100FF000502E01D00020F0BD9E680E54401C90423F
:10100000EFD31868A8431860186820431860186860
:101010000007FCD5186810210843186018682043A1
:1010200018601868C006FCD40120F0BD0000024022
:10103000C0400050CFCFFFFF00020050F8B505229E
:101040001207D36B4A4C2340D363D36B03252B4346
:10105000D363484B9E68DC0126439E605E692F0681
:10106000BE435E619E690F273F02BE439E61D36807
:101070002343D360D368A343D3603F4CA3680422C7
:101080001343A360A36802263343A360E3680826E2
:10109000B343E360E368AB43E360E3682B43E3609F
:1010A000E3689343E360626A2B071A43626200F0CD
:1010B00032FA616A801E0843606260680121084359
:1010C00060602E480168720211430160F8BD2C482F
:1010D00001680C2291430160016804221143016000
:1010E0007047F8B5074627480D4600780028FDD020
:1010F0000120FFF7F9FD224CA0680226B043A06052
:1011000000211D4805E07A5C026082695202FCD52C
:10111000491CA942F7D30120FFF7E6FDA068304340
:10112000A0600520FFF7E0FDF8BD10B520211648AE
:1011300000F0EDF9144800212030017010BD124874
:1011400010B52021213000F0E2F90F480021413094
:10115000017010BD10B5FFF7F2FF0B48552141306B
:1011600002780346203B99540178491C017010BD58
:10117000FCFCFFFF000200500000054000E100E021
:101180008040005038000020E40000200F48016833
:1011900030229143016001681022114301600B4825
:1011A00080300168890889000160016801221143CB
:1011B000016070470548816804229143816070474F
:1011C00002488168042211438160704780400050CA
:1011D0002448016830229143016001681022914344
:1011E00001600168C022914301600168402291437F
:1011F00001601C4840380168890889000160016865
:10120000012211430160704716480069000701D4AC
:1012100042207047622070477D201349000108601A
:1012200010484038816849084900816070470E497C
:10123000002008600B48403881680122114381601A
:10124000704708480069400704D408490020087026
:1012500041207047612070470248403800690120F2
:1012600070470000C040005008000020040000202B
:1012700010B5FFF7CDFC1548826801210A43826052
:10128000426903231A43426111480368022213434F
:101290000360036807242402A34303600368052452
:1012A0002402234303600368402423430360094B63
:1012B0001C6814431C60026880231A4302600268A1
:1012C0000A430260FFF7ACFC10BD000000020050B2
:1012D0000040004000E100E010B5FFF799FC5648DF
:1012E000826808210A438260426907231B039A43EC
:1012F000426105200007C2680A43C260C2688A438F
:10130000C2604E48016A0322D20691430162016A1B
:10131000C20211430162016A090A090201624849D5
:101320004162016A42031143016246490A6843155A
:101330001A430A60016A820211430162016A820350
:1013400011430162FFF76CFC10BD10B5FFF760FCA4
:101350003948826810210A438260426907231B04CE
:101360009A43426105200007C2680A43C260C2680E
:101370008A43C260344801680322D2069143016067
:1013800001680122D206114301600168090A0902BD
:1013900001602E49416001684203114301602949FF
:1013A0000A6801239B021A430A6001681A04114368
:1013B00001600168820311430160FFF731FC10BD39
:1013C00010B5FFF725FC1C48826820210A43826083
:1013D000426907231B059A43426105200007C26842
:1013E0000A43C260C2688A43C2601748016A032286
:1013F000D20691430162016A0122D20611430162C1
:10140000016A090A0902016211494162016A420343
:10141000114301620B490A680123DB021A430A6087
:10142000016ADA0311430162016A82031143016216
:10143000FFF7F6FB10BD0000000200500000014065
:10144000C05D000000E100E00000114040FBFF0033
:10145000001BB700F8B5042A2CD3830712D00B78F1
:10146000491C0370401C521E83070BD00B78491C8B
:101470000370401C521E830704D00B78491C037074
:10148000401C521E8B079B0F05D0C91ADF0020237A
:10149000DE1B08C90AE0FEF767FEF8BD1D4608C955
:1014A000FD401C46B4402C4310C0121F042AF5D244
:1014B000F308C91A521EF0D40B78491C0370401C63
:1014C000521EEAD40B78491C0370401C521EE4D40F
:1014D00009780170F8BD01E004C0091F0429FBD29E
:1014E0008B0701D50280801CC90700D002707047AD
:1014F00000290BD0C30702D00270401C491E0229EC
:1015000004D3830702D50280801C891EE3E70022F2
:10151000EEE70022DFE7002203098B422CD3030A07
:101520008B4211D300239C464EE003460B433CD430
:10153000002243088B4231D303098B421CD3030A98
:101540008B4201D394463FE0C3098B4201D3CB01C8
:10155000C01A524183098B4201D38B01C01A5241F8
:1015600043098B4201D34B01C01A524103098B42FC
:1015700001D30B01C01A5241C3088B4201D3CB00E7
:10158000C01A524183088B4201D38B00C01A5241CA
:1015900043088B4201D34B00C01A5241411A00D27A
:1015A00001465241104670475DE0CA0F00D04942E3
:1015B000031000D34042534000229C4603098B4253
:1015C0002DD3030A8B4212D3FC22890112BA030ADB
:1015D0008B420CD3890192118B4208D3890192115D
:1015E0008B4204D389013AD0921100E08909C309E2
:1015F0008B4201D3CB01C01A524183098B4201D3E4
:101600008B01C01A524143098B4201D34B01C01ACE
:10161000524103098B4201D30B01C01A5241C30846
:101620008B4201D3CB00C01A524183088B4201D3B5
:101630008B00C01A5241D9D243088B4201D34B00D0
:10164000C01A5241411A00D20146634652415B1012
:10165000104601D34042002B00D5494270476346F3
:101660005B1000D3404201B50020C046C04602BD19
:1016700070477047704700000246C80FC00781439B
:101680004B0030B54B405B009B0D20D01923DB068F
:10169000C91801231B05994220DB0324A407042554
:1016A0001346AB400BD3002B04D1EB0613409B0039
:1016B0001B1904D401246407002312195941FF2384
:1016C0001B0599420BD2C9000143500F09E0CB0220
:1016D00004D501430803024305D0054830BDFF216E
:1016E000C905084330BD084607210905884330BDB8
:1016F0000000C07FF0B50C46871A9C410D46861A43
:101700009D4103D2C01BA141D21963410D0D1F0D94
:10171000C64EEC1BAE435BD07F057F0D0026002F2D
:1017200050D02D05AC46A943DD020123ED0A1B056F
:101730001D4320231B1B23D41746E7403818714153
:101740002F46E740CC199D402818314661410C0DC9
:1017500026D161449A4012D50023401C59415200C1
:101760000DD140084000B24A4B00934207D30520F8
:101770004007081801D5511000E0AE493046F0BDD1
:101780006B00002A00D001229A18203C1F231B1B4B
:1017900001D5002302E0E540281871410C0DD8D096
:1017A000012424050919C407CD0740084908E40F9E
:1017B00028436144002CD6D00024401C61419A404B
:1017C000D1D1CEE76A05520DD9D1C90FC907D5E7E6
:1017D000974D4E00002801D0012400E00024341968
:1017E0005F00002A01D0012600E00026BE19924FBA
:1017F000AC420BD8AE4209D8B44205D0BD00AC42D1
:10180000BDD010461946F0BD9942FCD000203946A3
:10181000F0BDF0B51FB40C460F46811A9F41254616
:10182000861A9D4106D20125ED076F40401ABC4142
:1018300052187B41210D1E0D8D1BAC467B4D8D43F7
:101840007ED075056D0D7CD00D05AE46AC431B03F7
:101850001B0B7A4D52429D41202366469B1B14D39D
:101860001746F740381800260090744160462F460E
:101870000741E41900989D402818664116D4714626
:1018800071189A4025D5012320E093182A466A4111
:101890005200002B00D0521C203E1E239B1B002B0D
:1018A00061DD3541EE1728186641E8D5001876410C
:1018B0005B1C9A4000D3401C4B05F3181524E340F1
:1018C00010D3002B52D071467118D30FC01802D319
:1018D000491C05B0F0BD0123DB079A42F9D140084D
:1018E0004000F6E701225205B21801D1002853D07A
:1018F0000123CC0ADB029943891E002A08D1020C7D
:1019000003D0020C0004103902E002460020203906
:101910000023550B05D112020823550B01D15201AA
:101920000D23550C01D112011B1DD50C01D19200C4
:101930009B1C150D01D152005B1C2025EE1A01E005
:101940002CE022E00546F54015439840CA1AE1070D
:1019500069181305C918002ABBDA032040070818C4
:10196000C10FC9070FE071466118B2E7F1074008DF
:101970000843711071444A000CD001235B059A4260
:10198000A7D2C90FC9070020A3E74905490D25D1F2
:10199000002001E00028F4D100219AE7244D6600E0
:1019A000002801D0012100E0002171185F00002A09
:1019B00001D0012600E00026BE191F4FA9420FD812
:1019C000AE420DD8B14207D0BD00A94206D019469B
:1019D000A802414010467CE79C4201D0214678E7AE
:1019E0000020394675E730B40C465C4004D501242C
:1019F000E407634030BC0CE730BC7BE630B40C46F7
:101A00005C4004D50124E407634030BC72E630BC7E
:101A1000FFE630B40124E40761400D465D4001D487
:101A200030BC67E6634030BCF3E60000FF0700000F
:101A30000000E0FF0000F07F0000F87F0000F0FFF2
:101A40001F22030C02D10F22000402D0030E03D088
:101A500004E0002001467047083A0002030F01D15C
:101A6000121F0001830F01D1921E8000002801DBAC
:101A7000521E4000120551184205C012411810466E
:101A80007047C10FC90700D040420122920711439D
:101A9000D6E701218907D3E70121C90501234118B0
:101AA00042001B06D3185B0E0BD0C1100722D206D2
:101AB0008918400752428A1802D50922120789184C
:101AC0007047090208D50146002A03D0C10FC90793
:101AD0000020704710467047420202D000200349A0
:101AE0007047072109050143F4E700000000F87F73
:101AF00070B5FF242404C609FF25264001352E4376
:101B0000C209CB090546224023404D40002A6BD034
:101B1000002B69D0A24267D0A34265D0002D00DA25
:101B200032460124E4052143204309020002090A48
:101B3000D21A000A4B0C7F24E31A434C7C44E35C2A
:101B40007D242404121914145B00A218884201D3C6
:101B5000521C00E0400049420C465C4324115C43A7
:101B6000DB016415E318040A5C43C502200D0C4632
:101B700044436419250A5D432303EC0C0D46654379
:101B800000030019EB184C42A34201D35B18401C20
:101B9000D4052018002B07D05B00C91804D3401CC3
:101BA000002901D1400840003F2189048A4209D31D
:101BB000002A08DC1106090F04D003214907401848
:101BC000C00FC00770BD01224100120689187F2294
:101BD00052069142F6D205214907401801D59010CE
:101BE00070BDFF20C00570BD002D00DA3246174ED3
:101BF000A24207D2A34205D21802000E17D0E80F66
:101C0000C00770BDFF2443002406A34216D8490034
:101C1000A14213D8A34201D1A1420FD0A14201D1C8
:101C2000002101E041004908D005084370BD1002C1
:101C3000000E03D0FF200243D00570BD304670BDBA
:101C400048404140484053E7EA0500000000C07F9B
:101C500001460002CA1504D00123DB071843002AFD
:101C600009DB9E239A1A01D4D0407047FF22480016
:101C70001206904201D900207047C817C043704730
:101C80001F22030C02D10F2200041CD0030E01D12D
:101C9000083A0002030F01D1121F0001830F01D186
:101CA000921E8000002801DB521E4000D205511810
:101CB000021251181922904004D3491C002801D166
:101CC0004908490008467047C10FC90700D0404283
:101CD000012292071143D3E701218907D0E70000D1
:101CE000F8B5224C4E00069DA6420AD8A64201D164
:101CF000002806D15E00A64203D8A6420AD1002AD7
:101D000008D00D24240425422CD02946002000F0C0
:101D100061F8F8BD0C461C430CD4994202D0EFF395
:101D20000080F8BD904202D0EFF30080F8BDEFF3E1
:101D30000080F8BD09242407E5008B4206D0EFF3AC
:101D40000080A043591A06D2284304E0101A05D394
:101D5000EFF30080A04380F30088F8BDEFF300802C
:101D6000A043F1E7009500F04DF8F8BD0000E0FF5A
:101D700010B5FF231B0644009C421DD84C009C421A
:101D80001AD80346124A0B4307D4401A02D3EFF382
:101D9000008010BDEFF3008010BD081A06D2EFF3EB
:101DA000008001219043C907084302E0EFF300805F
:101DB000904380F3008810BD0D231B041A4204D009
:101DC0001146002000F006F810BD00F025F810BD07
:101DD00000000090CA0210D54A03520F04D0C80375
:101DE000C043012188407047054AEFF30081080194
:101DF0000009104380F300887047002070470000FE
:101E00000000003010B500200249029A00F031F8BD
:101E100010BD00000000F87F10B5024800F029F85E
:101E200010BD00000000C07F754600F051F8AE46BE
:101E3000050069465346C008C000854618B020B565
:101E4000FEF776FF60BC00274908B6460026C0C5ED
:101E5000C0C5C0C5C0C5C0C5C0C5C0C5C0C5403D62
:101E600049008D4670470446C046C0462046FEF7EE
:101E700074F910B50C461107090F092904D00A2975
:101E80000AD008290CD104E011460820FFF7A2FF70
:101E900006E0510606D501E0510601D50120C00734
:101EA000214610BDD10607D501010909CC08490713
:101EB000000E0006044309E0410F20024907000A12
:101EC0000143200E00061D22D14101430846E7E7E9
:101ED000004870472801002001491820ABBEFEE7EA
:101EE00026000200704730B47446641E2578641CD6
:101EF000AB4200D21D46635D5B00E31830BC18475F
:101F000070B501251C002D050C4310D4EC4206D4FD
:101F1000AC420AD48B4200D070BD824270BDEB420D
:101F200017D4E94215D48B4270BD9B4270BDEC4280
:101F300006D5AC42F9D5994200D070BD904270BD33
:101F40006D005C00EC4204D24C00EC4201D299429C
:101F500070BD0FB4034C0CBC03BC30B4FFF7C0FE23
:101F600030BC70BD1900160470B501250400ED07E2
:101F70004C4020D4441A01D2001B0919C60D4B0055
:101F8000F2B2FF2A29D01B0E2CD000020C02D31A69
:101F90002C43DC402843051910D2280A02D3401CE8
:101FA0006D0611D0761EF6058019FF2A00DA70BD85
:101FB000C00DC00570BD694000F04EF8012005431A
:101FC000C541521C761CE8E764089C40C901614089
:101FD0008900E7D10124A043E4E71B0E440200D0AE
:101FE000034870BD002AFCD1C00FC00770BD00BF00
:101FF0000000C07F01230A00DB0502430DD4DA4252
:1020000003D49A4207D481427047D94214D4D842AB
:1020100012D48142704789427047DA4203D59A420E
:10202000F9D5884270475B004A00DA4204D2420088
:10203000DA4201D2884270474840414010B5024A16
:102040004840FFF795FE10BD0900160470B5012544
:102050000400ED074C4022D4441A02D26C40001B0D
:102060000919C60D4B00F2B2FF2A4BD01B0E50D0FF
:1020700000020C02D31A2C43DC40A843051B05D5F3
:10208000AD0019D36D08761E521E37D0F605280A0A
:1020900001D2801970BD70416D0603D070BD6940DA
:1020A000FFF768FF9C4009026140490001D0401ED3
:1020B00070BD0124A04370BD6D081DD001202B0C04
:1020C00001D12D0410302B0E01D12D0208302B0F21
:1020D00001D12D01001DAB0F01D1AD00801CEB0F14
:1020E00001D16D00401C6D00361A121A680AF50500
:1020F0004019012A02DB70BD002070BDC036300AD5
:10210000C00770BD1B0E440201D1FF2B00D1024855
:1021100070BD002AF0D070BD0000C07F0E0D0B070F
:10212000C0F9A4B0999282F88090818283848586D8
:102130008788898B8C8D8E8F919293959697999A9B
:102140009C9D9FA0A2A3A5A7A8AAACAEB0B2B3B510
:10215000B7B9BCBEC0C2C5C7C9CCCED1D4D7D9DCF3
:10216000DFE2E6E9ECF0F3F7FAFE00008C21000074
:10217000000000203C00000004010000C821000015
:102180003C0000204C050000200100000000FFFF83
:10219000010000000000000000000000000000003E
:1021A000000000000000000000000000000000002F
:1021B000000000000000000000000000000000001F
:0821C000000000000100000016
:0400000500000D21C9
:00000001FF
